:020000040800F2
:10000000D8080020050100080D0D0008D9090008D6
:10001000BD0A000899080008B3230008000000008A
:100020000000000000000000000000002116000891
:100030009D08000800000000A11400082518000811
:100040001F0100081F0100081F0100081F01000810
:100050001F0100081F0100081F0100081F01000800
:100060001F0100081F0100081F0100081F010008F0
:100070001F0100081F0100081F0100081F010008E0
:100080001F0100081F0100081F0100081F010008D0
:100090001F0100081F0100081F0100081F010008C0
:1000A0001F010008C91A00081F0100081F010008ED
:1000B0001F0100081F0100081F0100081F010008A0
:1000C0001F0100081F0100081F0100081F01000890
:1000D0001F010008392100081F0100081F01000846
:1000E0001F0100081F0100081F010008DFF810D0E1
:1000F00000F0C0FB00480047912C0008AFF30080DF
:10010000D80800200648804706480047FEE7FEE77B
:10011000FEE7FEE7FEE7FEE7FEE7FEE7FEE7FEE7B7
:1001200029180008ED00000810B5002200E0521C5C
:10013000835C8C5CA34201D1002BF8D1D8B2E1B230
:10014000401A10BDF0B480EA0102D40F4200B2EBB5
:10015000410F02D20246084611464A0042D0C30D62
:10016000DDB2C1F3C752AD1A202D35DAC1F3160145
:1001700041F4000204B15242C5F1200602FA06F130
:100180002A411044B3EBD05F23D0C4B1012DA0EBC2
:10019000C35009DCF0BC4FF0004202EAC352DBB2AC
:1001A00000F5000000F0C3BA400000F1807000EBE1
:1001B000C350A0F1807040EAD170490009E04908BD
:1001C00041EAC071A0EBC35000F50000400800EB0D
:1001D000C350F0BC00F0A2BA6142012202EB41011F
:1001E000001BF6E7F0BC704781F00041AAE780F001
:1001F0000040A7E780EA010210B502F0004340008A
:1002000022D04A001FD0010E01EB1261C0F356004C
:10021000C2F3560240F4000042F40002A0FB0220A8
:1002200000047F39140400D0401C50EA124001D46D
:100230004000491EC2B20C0604EBD010401C40081E
:10024000802A02D003E0002010BD20F00100002928
:1002500000DA0020184310BD2DE9FE4F804681EAE8
:100260000300C00F0C46009021F0004123F0004530
:10027000B8EB0200A94105D24046214690461C46F3
:100280000B46024623F00040104347D0270DC7F32A
:100290000A00C3F30A510290401A019040286BDA19
:1002A000C3F3130040F4801B0098924620B1002352
:1002B000D2EB030A63EB0B0B01985946C0F14002E5
:1002C000504600F0FAF906460D4650465946019A46
:1002D00000F012FA10EB08006141002487EA115285
:1002E00084EAE7731A4340D0009A62B3019A012A64
:1002F0004FEA075215DC001B61EB02014FF0004290
:1003000002EA0752CDE90042001C41F58011324655
:100310002B4600F049FA03B0BDE8F08F4046214675
:10032000F9E7001B61EB0201001C41F58013001886
:100330005B412018A2F5001747EB030140EAD57096
:10034000B6196D4111E06D084FEA360645EAC075F1
:100350004FEA0752001B61EB0201001C41F58011BE
:1003600049084FEA30000019514132462B4603B08C
:10037000BDE8F04F00F009BA0098012240000023C8
:10038000D0EB020263EBE073009821464FEAE07481
:10039000B8EB000061EB0401E9E783F000435BE7A1
:1003A00081F0004158E72DE9FE4F81EA030404F093
:1003B000004421F0004100944FF0000B23F0004373
:1003C00050EA01045ED052EA03045BD0C3F30A543E
:1003D000C1F30A552C44A4F2F3340194A0FB025457
:1003E000C1F3130141F48011C3F3130343F48013E9
:1003F00001FB024400FB034E840A970A44EA81543D
:1004000047EA8357A4FB076802958D0A05FB078519
:100410004FEA932C04FB0C542705029D4FEA065823
:1004200047EA1637B5EB08056EEB070C870E920E00
:1004300047EA811742EA8312A7FB0201B6EB0B01E0
:1004400064EB00042B0D43EA0C335E1844EB1C50A4
:10045000DA465146E7FB0201C5F313044FEA0B33BA
:1004600043EA14534FEA0432019C43EA0603A4F121
:100470000C040294009CCDE900B400F095F903B09F
:10048000BDE8F08F00200146F9E72DE9F04D81EA43
:10049000030404F0004B21F0004514464FF0000A1D
:1004A00023F0004150EA050220D054EA01021DD099
:1004B000C5F30A570246C5F31303C1F31300C1F392
:1004C0000A5640F4801543F48013A7EB0608101B6E
:1004D000D64608F2FD3873EB050002D308F1010897
:1004E00001E092185B41B8F1000F03DA00200146E9
:1004F000BDE8F08D00204FF48011064684460EE0E2
:10050000171B73EB050705D3121B63EB05030643AB
:100510004CEA010C49084FEA300092185B4150EA5E
:100520000107EDD152EA030012D082EA040083EA07
:100530000501084305D0101BAB4106D20122002360
:1005400006E000224FF0004302E06FF0010253107A
:100550001AEB06004CEB085110EB0A0041EB0B01C3
:10056000BDE8F04D00F011B9C10F80EAE070084419
:10057000CA079623002100F0DAB800F0004220F00C
:100580000040C10DC0F3160040F400007F2901DADD
:1005900000207047962903DCC1F19601C84001E0B4
:1005A00096398840002AF4D04042704700F000425B
:1005B00030F000400AD0C10D01F56071C0F31600A3
:1005C00042EA0151C208400711437047002001462A
:1005D0007047000030B5041E71F1000404DB4FF0D9
:1005E0000044404264EB0101141E73F1000405DB7A
:1005F0001C464FF00043524263EB0403994208BF8C
:10060000904230BD002801DBC0F10040002901DB31
:10061000C1F1004181427047002801DBC0F1004078
:10062000002901DBC1F100418842704730B50B461B
:10063000014600202022012409E021FA02F59D4212
:1006400005D303FA02F5491B04FA02F52844151EE6
:10065000A2F10102F1DC30BD2DE9F05F054600207A
:1006600092469B4688460646814640241BE0284623
:1006700041464746224600F02FF853465A46C01AD4
:10068000914110D311461846224600F016F82D1A53
:1006900067EB01084F4622460120002100F00DF8CB
:1006A00017EB00094E41201EA4F10104DFDC48468F
:1006B00031462A464346BDE8F09F202A04DB203A13
:1006C00000FA02F1002070479140C2F1200320FAA5
:1006D00003F3194390407047202A04DB203A21FAA3
:1006E00002F00021704721FA02F3D040C2F120024B
:1006F0009140084319467047202A06DBCB17203A61
:1007000041FA02F043EAE07306E041FA02F3D04016
:10071000C2F1200291400843194670470029A8BF42
:100720007047401C490008BF20F00100704710B41A
:10073000B0FA80FC00FA0CF050EA010404BF10BCCF
:10074000704749B1CCF1200421FA04F411FA0CF1FC
:1007500018BF012121430843A3EB0C01CB1D4FEA35
:1007600000614FEA102042BF002010BC704700EB30
:10077000C35010440029A4BF10BC7047401C49005E
:1007800008BF20F0010010BC704710B5141E73F1B3
:10079000000408DA401C41F1000192185B411A4341
:1007A00001D120F0010010BD2DE9F04D92469B468D
:1007B00011B1B1FA81F202E0B0FA80F22032904633
:1007C000FFF77BFF04460F4640EA0A0041EA0B01AF
:1007D00053465A46084313D0114653EA010019D034
:1007E000C8F140025046FFF777FF05460E465046D7
:1007F00059464246FFF761FF084305D0012004E057
:1008000020463946BDE8F08D0020054346EAE076F3
:100810002C4337430A986305E40AA0EB0800002242
:10082000FD0A44EA47540A3002D500200146E9E7B0
:10083000010510196941DDE9084500196941BDE864
:10084000F04DA2E7C1F30A52C1F3130140F2FF33A6
:1008500041F480119A4202DA00200146704740F2CA
:1008600033439A42A2F2334202DC5242FFF734BFD2
:10087000FFF723BF064C074D06E0E06840F0010398
:1008800094E8070098471034AC42F6D3FFF732FCE7
:100890009C390008BC39000800BFFEE770472DE90D
:1008A000F0410246002500260020002300240027F6
:1008B00091F803C00CF00F0591F803C00CF0100C78
:1008C000BCF1000F03D091F802C04CEA050591F885
:1008D00000C0BCF1000F31D0146800202BE04FF0B5
:1008E000010C0CFA00F3B1F800C00CEA03069E42BA
:1008F00020D183004FF00F0C0CFA03F7BC4305FA2C
:1009000003FC4CEA040491F803C0BCF1280F06D1A3
:100910004FF0010C0CFA00FCC2F814C00AE091F888
:1009200003C0BCF1480F05D14FF0010C0CFA00FCDC
:10093000C2F810C0401C0828D1D31460B1F800C020
:10094000BCF1FF0F34DD546800202EE000F1080CEC
:100950004FF0010808FA0CF3B1F800C00CEA0306E6
:100960009E4221D183004FF00F0C0CFA03F7BC43D9
:1009700005FA03FC4CEA040491F803C0BCF1280F0B
:1009800005D100F1080C08FA0CF8C2F8148091F8AF
:1009900003C0BCF1480F07D100F1080C4FF001086B
:1009A00008FA0CF8C2F81080401C0828CED3546016
:1009B000BDE8F0810246002093680B400BB1012096
:1009C00000E00020704741617047016170470AB143
:1009D000016100E04161704700BFFEE70548007813
:1009E00030B1044801780020024A10700846704770
:1009F0000020FCE71400002010B502210F48FFF78B
:100A0000D9FF08B9012010BD4FF400610B48FFF772
:100A1000D1FF08B90220F6E74FF480610748FFF7DD
:100A2000C9FF08B90320EEE701210448FFF7C2FF20
:100A300008B90420E7E70020E5E70000000C0140CA
:100A400008B50121082000F03DFD48208DF8030085
:100A500040F60340ADF8000003208DF8020069461F
:100A60000148FFF71CFF08BD000C014010B50F48FE
:100A70000078401C0D49087008460078142813DBE4
:100A8000002008700A4800780A490870FFF7B4FF90
:100A9000074908700846007830B90648007818B150
:100AA000044800780449087010BD000015000020BB
:100AB00016000020170000201400002000BFFEE7F1
:100AC00010B50446002C0DDB4FF480510D48FFF7A4
:100AD0007CFF4FF400510B48FFF775FFA0B200F008
:100AE000CFFC0DE04FF480510648FFF76CFF4FF448
:100AF00000510448FFF769FF614288B200F0C0FC72
:100B000010BD0000000C014010B50446002C0DDBA8
:100B10004FF480410D48FFF758FF4FF400410B4858
:100B2000FFF751FFA0B200F0B3FC0DE04FF480419D
:100B30000648FFF748FF4FF400410448FFF745FF20
:100B4000614288B200F0A4FC10BD0000000C01401E
:100B500010B5054801F00FF904B20021024801F078
:100B60002AFA204610BD00000004004010B50548D8
:100B700001F001F904B20021024801F01CFA2046FC
:100B800010BD00000008004000B587B00121022020
:100B900000F088FC0121042000F094FC01210420D5
:100BA00000F080FC0121082000F08CFC48208DF82A
:100BB0001B00C020ADF8180003208DF81A0006A90C
:100BC0003B48FFF76CFE48208DF81B00C020ADF8B5
:100BD000180003208DF81A0006A93648FFF75FFEBB
:100BE0000020ADF81200ADF80E004FF6FF70ADF822
:100BF00010000020ADF80C008DF8140003A92E4859
:100C000001F008FA0020ADF81200ADF80E004FF622
:100C1000FF70ADF810000020ADF80C008DF8140046
:100C200003A9264801F0F6F9684601F00FF9002003
:100C3000ADF800000F20ADF8080069461E4801F02D
:100C4000AFF80420ADF800000F20ADF808006946A9
:100C5000194801F0A5F8684601F0F8F80020ADF851
:100C600000000F20ADF808006946144801F098F81C
:100C70000420ADF800000F20ADF8080069460F48C9
:100C800001F08EF800231A4603210B4801F052F8B8
:100C900000231A460321094801F04CF801210648B7
:100CA00001F03CF80121054801F038F807B000BD1B
:100CB00000080140000C0140000400400008004012
:100CC00008B50121082000F0FDFB10208DF803007D
:100CD0004FF44050ADF8000003208DF80200694643
:100CE0000948FFF7DCFD10208DF803004FF4404069
:100CF000ADF8000003208DF8020069460248FFF7B6
:100D0000CEFD00F061FB08BD000C01407047000003
:100D100070B5002100230F22C47804B3154C246859
:100D200004F4E064C4F5E064210AC1F10403CA409C
:100D3000447804FA03F184781440214309010E4CED
:100D40000678A155047804F01F050124AC4005780D
:100D50006D11AD0005F1E025C5F8004109E004780A
:100D600004F01F050124AC40044D0678761145F8C7
:100D7000264070BD0CED00E000E400E080E100E002
:100D800002490143024A1160704700000000FA0561
:100D90000CED00E000200CE0002106E00022064BF4
:100DA00003EBC0135A544A1CD1B28029F6DB421C13
:100DB000D0B20828F0DB7047D40000202DE9F043C2
:100DC00004460D4616461F46284638E0224631E0C6
:100DD000002A2DDB7F2A2BDC002829DB3F2827DC9B
:100DE0004FEAE07C00EB5C7C4FEAEC0CDFF85880CB
:100DF00008EBCC1C1CF802C003464FEAE07800EB7D
:100E000058784FEAE808A0EBC8094FF0010808FA43
:100E100009F82CEA080C01464FEAE07800EB587814
:100E20004FEAE808DFF8209009EBC81808F802C07C
:100E3000511C0AB2A1199142CADC411C08B2E9193D
:100E40008142C3DCBDE8F083D400002038B5002423
:100E500006E0002500E06D1CB5F57A7FFBD3641C2D
:100E6000B4F57A7FF5D30121082000F02BFB142084
:100E70008DF8030003208DF802004FF48070ADF868
:100E8000000069460848FFF70AFD4FF40070ADF80E
:100E9000000069460448FFF702FD012000F054FA03
:100EA000012000F05DFA38BD000C014070B5054628
:100EB000002411E080212141294009B1012100E0F5
:100EC0000021084600F04CFA012000F03DFA002015
:100ED00000F03AFA601CC4B2082CEBDB012000F0F1
:100EE00033FA002000F030FA70BD10B5012000F098
:100EF00037FA012000F028FA002000F031FA002033
:100F000000F022FA10BD10B5002000F029FA0120EF
:100F100000F01AFA012000F023FA10BD10B5FFF717
:100F200095FFAE2000F028FAD52000F025FA8020A9
:100F300000F022FAA82000F01FFA3F2000F01CFA6F
:100F4000D32000F019FA002000F016FA402000F03B
:100F500013FAA12000F010FAC82000F00DFADA20F0
:100F600000F00AFA122000F007FA812000F004FADB
:100F7000CF2000F001FAD92000F0FEF9F12000F0B6
:100F8000FBF9DB2000F0F8F9302000F0F5F9A4209F
:100F900000F0F2F9A62000F0EFF98D2000F0ECF956
:100FA000142000F0E9F9AF2000F0E6F9FFF7F2FEB7
:100FB00000F0B6F910BD0FB470B5C2B005460E46CC
:100FC00014464AA8019002A8019A499901F0F4F93F
:100FD00000200190234602AA3146284600F0BEF8C0
:100FE00042B070BC5DF814FB70B505460C4645F088
:100FF000B00000F0C1F9102141EA141000F0BCF972
:1010000004F00F0000F0B8F970BD0000F8B5064616
:101010000F4614461D46082D0CD1A4F120000E49A0
:1010200001EB00101023082239460090304600F0F2
:1010300017F80FE0062D0DD1A4F1200000EB4000C1
:10104000064901EB4000082306223946009030464D
:1010500000F006F8F8BD00004C3000083C360008EF
:101060002DE9FF4F80460E469146DDF834B000254D
:1010700000244A4631464046039BFFF79FFE00BFCF
:101080005EE0002558E008EB0500002852DB08EB85
:1010900005007F284EDC3046F11706EB5171C91070
:1010A0000FB2F11706EB5171C910A6EBC10A002E61
:1010B00005DA781E07B20AF108000FFA80FA38192B
:1010C000002817DB3819072814DC3819224901EBEE
:1010D000C01008EB0501405C04FB09511BF801102E
:1010E00001FA0AF1084339191B4A02EBC11108EB56
:1010F000050288543819401C00281BDB3819401C95
:10110000072817DC3819401C134901EBC01008EB05
:101110000501405C04FB09511BF80110CAF10802EB
:10112000114108433919491C0B4A02EBC11108EB64
:1011300005028854681CC5B24D45A4DB601CC4B2CE
:101140000399481EC11700EB5171012202EBE10126
:10115000A14296DCBDE8FF8FD40000202DE9FE4FB0
:1011600007468A46144698460025AB460026CBE043
:10117000605D00F0800058B94FF0010B2846691CF3
:101180008DB2205C8DF8040000208DF805006BE026
:10119000605D00F0E000C02814D14FF0020B28463B
:1011A000691C8DB2205C8DF80400605D00B9AFE071
:1011B0002846691C8DB2205C8DF8050000208DF852
:1011C000060051E0605D00F0F000E0281DD14FF016
:1011D000030B2846691C8DB2205C8DF80400605D0D
:1011E00000B995E02846691C8DB2205C8DF8050099
:1011F000605D00B98CE02846691C8DB2205C8DF8DA
:10120000060000208DF807002EE0605D00F0F80079
:10121000F02826D14FF0040B2846691C8DB2205CC3
:101220008DF80400605D00B972E02846691C8DB23B
:10123000205C8DF80500605D00B969E02846691CF6
:101240008DB2205C8DF80600605D00B960E0284634
:10125000691C8DB2205C8DF8070000208DF8080015
:1012600002E0681C85B24FE0BBF1010F0BD19DF885
:101270000420B91908B243465146FFF7C7FE06EBF2
:10128000080086B23FE04FF000090EE009EB89014B
:1012900001EB4911204A881801A9FEF745FF00B962
:1012A0000EE009F101001FFA80F909EB890101EB59
:1012B0004911194A881819A1FEF736FF0028E5D10F
:1012C00000BFB8F1080F12D109EB890000EB4910FB
:1012D00011490844401DB919009008B210231A465C
:1012E0005146FFF7BDFE06F1100086B20BE0B8F1E3
:1012F000060F08D1B91908B206233F225146FFF75D
:1013000085FEB01D86B200BF605D00287FF430AF5F
:1013100000BFBDE8FE8F0000763800080000000026
:1013200010B500240BE000212046FFF75DFE0549C3
:1013300001EBC410802100F02FF8601CC4B2082C0F
:10134000F1DB10BDD400002010B5044622464FF456
:1013500080710248FFF73BFB10BD0000000C01400C
:1013600010B5044622464FF400710248FFF72FFBE8
:1013700010BD0000000C014010B50446FFF7B5FD9C
:101380007820FFF793FD0020FFF790FD2046FFF740
:101390008DFDFFF7B8FD10BD70B505460E46FFF791
:1013A000A4FD7820FFF782FD4020FFF77FFD002499
:1013B00004E0285DFFF77AFD601CC4B2B442F8DB9C
:1013C000FFF7A1FD70BD000000B589B001210846FE
:1013D00000F068F80121042000F074F818208DF85E
:1013E00023000420ADF8200003208DF8220008A976
:1013F0002248FFF754FA18208DF823000820ADF892
:10140000200003208DF8220008A91C48FFF747FAA6
:101410004FF0804000F02CFD0020ADF81A00ADF830
:1014200016006320ADF818002320ADF8140000204A
:101430008DF81C0005A94FF0804000F0EBFD01A8DD
:1014400000F0AAFD6020ADF804000020ADF80C000B
:101450000120ADF806000020ADF80A0001A94FF008
:10146000804000F00BFD01A94FF0804000F056FDD8
:101470000121880700F052FC09B000BD00080140BE
:1014800010B5044621464FF0804000F08FFD10BD9E
:1014900010B5044621464FF0804000F089FD10BD94
:1014A0007047000029B1064AD2690243044BDA6151
:1014B00004E0034AD2698243014BDA6170470000BD
:1014C0000010024029B1064A92690243044B9A6116
:1014D00004E0034A92698243014B9A61704700001D
:1014E0000010024030B500210022002400232D4DC1
:1014F0006D6805F00C0121B1042905D0082923D11C
:1015000005E0294D056022E0274D05601FE0254DCF
:101510006D6805F47012234D6D6805F48034022562
:1015200005EB92421CB9214D554305600BE01D4D62
:101530006D6805F400351DB11C4D5543056002E092
:10154000194D5543056002E0174D056000BF00BF0F
:10155000144D6D6805F0F0010909154D6B5C0568C7
:10156000DD4045600F4D6D6805F4E061090A104DDE
:101570006B5C4568DD4085600A4D6D6805F460511F
:10158000C90A0B4D6B5C4568DD40C560054D6D6853
:1015900005F44041890B074D6B5CC568B5FBF3F55D
:1015A000056130BD0010024000127A0000093D00C4
:1015B000000000201000002010B54FF48071024898
:1015C000FFF7F8F910BD00000008014010B54FF416
:1015D00000610248FFF7EEF910BD0000000801406D
:1015E00010B54FF480510248FFF7E4F910BD000038
:1015F0000008014008B501210420FFF763FF4820DF
:101600008DF803004FF4C850ADF8000003208DF8AA
:10161000020069460148FFF742F908BD0008014091
:101620007047000000B587B001218803FFF74AFF2B
:1016300001210420FFF746FF18208DF81B004FF40E
:101640000070ADF8180003208DF81A0006A9214893
:10165000FFF725F948208DF81B004FF48060ADF8A6
:10166000180003208DF81A0006A91A48FFF717F989
:101670004FF4165002900020ADF814000C20ADF885
:1016800012000020ADF81000ADF80E00ADF80C000F
:1016900002A9114800F018FE012240F225510E481F
:1016A00000F0ECFD4FF4A060FFF76AFB25208DF8F9
:1016B000040001208DF807008DF805008DF8060064
:1016C00001A8FFF725FB0121034800F094FD07B0B6
:1016D00000BD000000080140003801400FB400B513
:1016E0009BB01DA8019002A8019A1C9900F064FE0D
:1016F0000020019002A800F013F81BB05DF814FB65
:1017000010B504462146054800F04FFE00BF802179
:10171000024800F07CFD0028F9D010BD00380140DF
:1017200070B50446002504E0605DFFF7E9FF681C22
:10173000C5B2605D0028F7D170BD10B500F002F8A9
:1017400010BD00000CB500200190009033480068E7
:1017500040F480303149086000BF3048006800F430
:10176000003000900198401C0190009818B9019831
:10177000B0F5A06FF1D12948006800F4003010B135
:101780000120009001E0002000900098012843D142
:101790002348006840F010002149086008460068AE
:1017A00020F0070008600846006840F0020008606A
:1017B0001A48406819494860084640684860084629
:1017C000406840F4806048600846406820F47C101F
:1017D00048600846406840F4E810486008460068E1
:1017E00040F08070086000BF0C48006800F0007096
:1017F0000028F9D00948406820F0030007494860F4
:101800000846406840F00200486000BF0348406856
:1018100000F00C000828F9D10CBD000000100240B7
:10182000002002407047000010B51348006840F0E7
:1018300001001149086008464068104908400E49F7
:101840004860084600680E4908400B490860084691
:10185000006820F4802008600846406820F4FE00FC
:1018600048604FF41F008860FFF767FF4FF000608B
:101870000449086010BD0000001002400000FFF89D
:10188000FFFFF6FE08ED00E0F0B50C46154600221D
:101890000021068C4FF6FE773E400684028B018CB9
:1018A0004FF60C7632407E1C06EA03162E43324376
:1018B000104EB0420ED0104EB0420BD0B0F1804F5F
:1018C00008D00E4EB04205D00D4EB04202D00D4EA3
:1018D000B04206D14FF6FD76314044F00106314367
:1018E00005E04FF6F576314044F0010631430283BE
:1018F0000184F0BD002C0140003401400004004090
:1019000000080040000C0040F0B50C4615460022CF
:1019100000210026078C4FF6EF7C07EA0C070784AE
:10192000028B018C4FF6FF7707EA041640F6FF475B
:101930003A404FF6FF7707EA03373A434FF6FF770F
:1019400007EA05273A43114FB8420ED0104FB8426C
:101950000BD0B0F1804F08D00E4FB84205D00E4FDB
:10196000B84202D00D4FB84206D14FF6DF7739406A
:1019700046F01007394305E04FF65F77394044F0F1
:101980001007394302830184F0BD0000002C0140A0
:10199000003401400004004000080040000C0040FA
:1019A000F0B50C461546002200210026078C4FF6A4
:1019B000FF6C07EA0C070784828B018C4FF6FF77D8
:1019C00007EA04264FF60C773A404FF6FF7707EA0E
:1019D00003172F433A43114FB8420ED0104FB8426D
:1019E0000BD0B0F1804F08D00E4FB84205D00E4F4B
:1019F000B84202D00D4FB84206D14FF6FF573940DA
:101A000046F48077394305E04FF2FF57394044F4FC
:101A10008077394382830184F0BD0000002C0140AF
:101A2000003401400004004000080040000C004069
:101A3000F0B50C461546002200210026078C4EF614
:101A4000FF7C07EA0C070784828B018C4FF6FF7737
:101A500007EA043640F6FF473A404FF6FF7707EAB9
:101A600005273A434FF6FF7707EA03373A43114F0A
:101A7000B8420ED0104FB8420BD0B0F1804F08D012
:101A80000E4FB84205D00E4FB84202D00D4FB842AB
:101A900006D14DF6FF77394046F48057394305E0CB
:101AA00047F6FF57394044F4805739438283018415
:101AB000F0BD0000002C0140003401400004004053
:101AC00000080040000C00402DE9F04701217B4850
:101AD00000F054F901287CD1FEF7C8FF784800785F
:101AE000012877D1FFF734F80446FEF73DFD75492C
:101AF0000860FFF73BF80446FEF736FD72490860C0
:101B0000724800687249086072480068724908604B
:101B10007248006872490860724800686F4908603E
:101B2000684801686A480068FEF75EFB6D49086016
:101B30006D4800686D4908606D4800686A49086032
:101B40006148016864480068FEF74EFB6849086018
:101B5000624801684FF08040FEF74CFB81466148C7
:101B600001684846FEF743FB80465D4801684046F1
:101B7000FEF7E8FA07465F4801683846FEF73AFB89
:101B80000546584801685C480068FEF733FB80460C
:101B90005248016853480068FEF726FB81465748C3
:101BA00001684846FEF726FB07464146FEF7CAFA9B
:101BB00006462946FEF7C6FA044651480168204603
:101BC000FEF7C0FA4E490860474801684FF0804070
:101BD00001E070E06BE0FEF70DFB814644480168D0
:101BE0004846FEF704FB8046404801684046FEF741
:101BF000A9FA07463F4801683846FEF7FBFA054652
:101C00003B4801683C480068FEF7F4FA80463648D5
:101C1000016837480068FEF7E7FA814637480168EF
:101C20004846FEF7E7FA07464146FEF78BFA0646B6
:101C30002946FEF787FA0446324801682046FEF737
:101C400081FA3049086030492D480068FEF7E4FC0D
:101C500002D22D482A4908602C4929480068FEF71D
:101C6000D1FC02D229482649086027492548006846
:101C7000FEF7D2FC02D224482249086023492148B9
:101C80000068FEF7BFFC02D220481E4908601C48CD
:101C90000068FEF772FC44B22046FEF711FF1948B7
:101CA0000068FEF76AFC44B22046FEF72DFF0121D2
:101CB000024800F030F8BDE8F0870000002C014039
:101CC0001D0000206000002064000020240000208F
:101CD0005000002028000020540000203C0000207C
:101CE0004000002038000020480000204C00002068
:101CF0004400002034000020300000202C00002090
:101D0000580000205C0000200000C8420000C8C24B
:101D1000CA4302827047CA430282704721B10288D7
:101D200042F00102028004E002884FF6FE731A407E
:101D300002807047F0B50C4615461E460021002271
:101D400000230189028B038C4FF6F8773940214339
:101D50004FF6FC473A4040F201173A434FF6DD7721
:101D60003B404FF6FF7707EA06172F433B430181BD
:101D700002830384F0BD0146888C704730B502466B
:101D8000002000230024158A05EA0103958905EA4D
:101D9000010413B10CB1012000E0002030BD0000AF
:101DA00070B505460C46244885420ED0234885422E
:101DB0000BD0B5F1804F08D02148854205D021488D
:101DC000854202D02048854200D100E000BF208833
:101DD00050B92389A28861882846FFF755FDE1881C
:101DE000284600F0EAF825E0208804280AD1238953
:101DF000A28861882846FFF787FDE188284600F021
:101E0000E5F817E0208808280AD12389A28861888C
:101E10002846FFF7C5FDE188284600F0E4F809E010
:101E20002389A28861882846FFF702FEE1882846B8
:101E300000F0E2F870BD0000002C014000340140C9
:101E40000004004000080040000C00400021018018
:101E50004180012181800021C180018170471AB138
:101E600083890B43838102E083898B43838170479D
:101E700001894FF6F87211400181704770B5002456
:101E800000220023058C4FF6FF6635400584028C46
:101E90008388848B4FF68F752C404FF6FC752C4051
:101EA0000D882C434FF6FF552A400D894FF6FF76DB
:101EB00006EA05252A434D8806EA05252A43154DDD
:101EC000A84202D0144DA8421DD14FF2FF752A40FE
:101ED0004D894FF6FF7606EA05252A434FF6FF3572
:101EE0002A408D8806EA05252A434EF6FF752B40C9
:101EF0004DF6FF752B408D8906EA05152B43CD89DC
:101F000006EA05152B4383808483CD888587028468
:101F100070BD0000002C01400034014070B500226B
:101F200000230024058C4EF6FF7635400584038C93
:101F30008488828B48F6FF752A404FF6FF452A4079
:101F40000D884FF6FF7606EA05252A434DF6FF7504
:101F50002B400D8906EA05352B434D8806EA0535E9
:101F60002B430B4DA84202D00A4DA84208D14BF694
:101F7000FF752C408D894FF6FF7606EA85152C43B8
:101F800084808283CD88A0F84050038470BD000017
:101F9000002C0140003401400021018041808180FB
:101FA000C180018141818181C181704781877047F2
:101FB000A0F84010704781847047028B4FF6F3738E
:101FC0001A400283028B0A4302837047028B4FF24E
:101FD000FF331A400283028B4FF6FF7303EA01239B
:101FE0001A4302837047828B4FF6F3731A40828341
:101FF000828B0A4382837047828B4FF2FF331A40F1
:102000008283828B4FF6FF7303EA01231A43828394
:1020100070470000002202881D4B98420ED01D4BD5
:1020200098420BD0B0F1804F08D01B4B984205D09E
:102030001A4B984202D01A4B984204D14FF68F7334
:102040001A404B881A43174B984207D0164B9842B8
:1020500004D04FF6FF431A40CB881A4302808B8886
:1020600083850B8803850A4B98420BD0094B984215
:1020700008D00E4B984205D00D4B984202D00D4B24
:10208000984201D10B7A03860123838270470000B6
:10209000002C0140003401400004004000080040D2
:1020A000000C0040001000400014004000400140BF
:1020B00000440140004801401FB50121C802FFF75C
:1020C00001FA1C48FFF7D4FE0020ADF80A00ADF875
:1020D000060040F2E730ADF8080040F2CF20ADF83E
:1020E000040000208DF80C0001A91248FFF792FFB0
:1020F00001211048FFF70CFE012211460D48FFF7A1
:10210000AEFE4FF4A060FEF73BFE19208DF80000F4
:1021100001208DF8030002208DF8010001208DF8C8
:1021200002006846FEF7F4FD01210248FFF7F6FDC4
:102130001FBD0000002C014010B540F22551214880
:1021400000F072F801283CD11E4800F029F9C4B211
:102150001D48007858B9402C2DD11C48007850BB40
:1021600001201949087000201949087023E0164819
:10217000007801280FD10D2C03D1022012490870DC
:1021800019E0144812490978445411480078401C59
:102190000F4908700FE00C48007802280BD10A2C78
:1021A00009D10020084908700A49094A1278885460
:1021B00001200649087040F22551024800F00CF851
:1021C00000BF10BD00380140190000201800002099
:1021D0001A0000207000002010B50022002340F6F5
:1021E0006A14A14200D100BF0A1201249440A3B294
:1021F000DC43048010BD21B1828942F40052828107
:1022000004E082894DF6FF731A40828170470246CE
:102210000020B1F5007F00D100BF13880B400BB147
:10222000012000E00020704770B502460024002322
:102230000025002040F66A16B14200D100BFC1F36C
:10224000421501F01F03012606FA03F3012D02D106
:102250009689334006E0022D02D1168A334001E010
:10226000968A33400C12012606FA04F4168834408C
:1022700013B10CB1012000E0002070BDF0B50346A1
:10228000002400260025002040F66A17B94200D13C
:1022900000BF1846C1F3421401F01F06012707FAD8
:1022A00006F5012C01D10C3004E0022C01D11030D4
:1022B00000E014301AB107682F43076002E0076896
:1022C000AF430760F0BD00002DE9F04786B005463A
:1022D0000E460024A24600BFA1460027B08900B1E7
:1022E00000BF2F462C8A4CF6FF700440F088044350
:1022F0002C82AC894EF6F3100440B0883189084333
:10230000718908430443AC81AC8A4FF6FF40044016
:10231000B0890443AC8201A8FFF7E4F81F48874264
:1023200002D1DDF810A001E0DDF80CA0A88900F4CE
:10233000004040B10AEBCA0000EB0A1031684900C6
:10234000B0FBF1F807E00AEBCA0000EB0A103168B5
:102350008900B0FBF1F86420B8FBF0F0040120091B
:10236000642101FB1089A88900F4004040B13220AB
:1023700000EBC900B0FBF1F000F00700044308E0F7
:10238000322000EB09106421B0FBF1F000F00F00E7
:1023900004432C8106B0BDE8F087000000380140FE
:1023A00001468888C0F308007047C1F308028280A4
:1023B000704700BFFEE7000037B514460846064BDD
:1023C0006A46214600F0DCF804466946002000F029
:1023D0005AFC20463EBD0000872C000802E008C8D9
:1023E000121F08C1002AFAD170477047002001E08F
:1023F00001C1121F002AFBD1704700002DE9FF5FC9
:1024000082B00021DDE90430020DDDF840B0034365
:1024100018D044F61050A2F2FF324243151411981E
:1024200001281FD0A5EB0B00401C5FEA000A4FF00B
:1024300000064E4FDFF83891B046504615D5CAF128
:10244000000413E0119801244AA3012801D16FEA86
:102450000B010298119AC0E90031C0E9024206B0AE
:10246000BDE8F09FCBF10000DFE704460021404AC1
:10247000491842EB0450CDE9001012E0E00707D004
:1024800032463B4640464946FDF78DFF8046894629
:1024900032463B4610461946FDF785FF06460F4675
:1024A0006410002CEAD1DDE90401DDE90023BAF172
:1024B000000F06DAFDF777FF42464B46FDF773FF44
:1024C00005E0FDF7E2FF42464B46FDF7DEFF04461E
:1024D0000E460022284BFEF77DF803D84FF0FF3060
:1024E000014607E00022254B20463146FDF7B4FEA9
:1024F000FEF7A8F9102409E0002C0ADB0A220023C9
:10250000FEF7AAF8039B30321A55641E50EA010206
:10251000F2D1641C039AC4F111031444119A012AE4
:1025200003D0012208430DD10AE0084304D0002063
:102530004FF0110B119072E7A3EB0B056D1E0DE030
:102540005B4504DD4FF0000205F1010504E003DA0C
:102550004FF00002A5F10105002AECD00298119974
:10256000C0E90231C0E9004579E7000000001440ED
:102570000000F03F300000000000F0430000E03FAA
:102580002DE9FF4F95B09A46884606460025EEE1B4
:10259000252877D100242746F94A0121039400E039
:1025A000044316F8013F203B01FA03F01042F7D133
:1025B00030782A2811D06FF02F033078A0F1300244
:1025C000092A16D8039A44F0020402EB820203EBB4
:1025D00042021044761C0390EFE758F8042B039254
:1025E000002A03DA504244F40054039044F00204F9
:1025F000761C30782E2816D116F8010F44F004040A
:102600002A280DD06FF02F023078A0F13003092B6B
:1026100009D807EB870302EB4303C718761CF3E7DF
:1026200058F8047B761C30786C280FD006DC4C28D8
:1026300017D068280DD06A2814D104E0742810D06F
:102640007A280FD10DE044F400140AE044F4801419
:1026500001E044F440147278824202D104F58014FF
:10266000761C761C307866280BD013DC582877D07F
:1026700009DC002875D04528F6D04628F4D0472834
:102680001AD193E118E0632835D0642879D0652801
:1026900012D18BE1702873D008DC6728F1D069284B
:1026A0006FD06E280DD06F2806D1ACE073282CD0E7
:1026B000752874D0782853D05246179990476D1CCE
:1026C00054E1C4F30250022809D003280DD0D8F8F1
:1026D000001004280DD00D6008F1040846E1D8F878
:1026E0000010EA17C1E90052F6E7D8F800100D8093
:1026F000F2E70D70F0E718F8041B8DF800100020C9
:102700008DF80100EB46012003E058F804BB4FF0C0
:10271000FF3061074FF0000102D40DE009F1010123
:102720008946B9420FDA8145F8DB1BF80910002908
:10273000F4D108E009F1010189468142FADB1BF876
:1027400009100029F6D103985346A0EB090721464A
:102750003846179A00F080FA284400EB090507E094
:1027600044E008E10DE01BF8010B52461799904731
:10277000B9F10109F7D2534621463846179AF2E0DB
:1027800039E00A21C4F302524FF0000B0091022AF3
:1027900006D058F8040BC117032A09D00AE023E039
:1027A00008F1070020F00702F2E80201904605E078
:1027B00000B2C117042A01D140B2C117002906DABC
:1027C0000A460021404261EB02012D2202E022056F
:1027D00004D52B228DF80420012203E0E20701D06A
:1027E0002022F7E7914657E00A2100E010214FF040
:1027F000000B00910BE010214FF0000B44F004049B
:102800000827009103E008204FF0000B0090C4F36C
:102810000252022A05D058F8040B0021032A08D0DE
:1028200008E008F1070020F00702F2E802019046F4
:1028300003E080B2042A00D1C0B24FF000092207A1
:102840002AD53278702A07D0DDF800C08CF0100C41
:102850005CEA0B0C05D00EE040228DF8042001222A
:1028600008E050EA010306D030238DF804308DF8DB
:10287000052002229146009B83F0080353EA0B03D4
:102880000AD150EA010201D1620705D530228DF844
:1028900004204FF001097F1E3278582A04D039A253
:1028A0000C920CAA02920BE03BA2F9E75B46009A5D
:1028B000FDF7D2FE0C9B9B5C029A521E0292137093
:1028C00050EA0102F2D1029804A9081A00F1200B83
:1028D000600702D524F4803400E001275F4502DD63
:1028E000A7EB0B0000E0002000EB0B010090039829
:1028F0004944401A0390E00306D453462146179AF0
:10290000039800F0A9F90544002706E001A8524603
:10291000C05D179990476D1C7F1C4F45F6DBE003A7
:102920000CD553462146179A039800F095F90544B3
:1029300004E030205246179990476D1C0099481EBC
:1029400000900029F5DC08E00298029952460078D0
:10295000491C0291179990476D1CBBF10001ABF126
:10296000010BF1DC5BE100F065F90544761C307881
:1029700000287FF40DAE19B02846BDE8F08F0000A6
:102980000928010030313233343536373839616245
:102990006364656600000000303132333435363709
:1029A000383941424344454600000000600700D4E6
:1029B000062708F1070020F00700F0E80223804610
:1029C00003F0004C5FEA0C0001D097A009E020055D
:1029D00001D596A005E0E00701D095A001E0AFF297
:1029E0004C001390307823F0004365280CD006DCAF
:1029F000452809D046281DD047287FD13BE06628CE
:102A000018D067287AD136E00021112F01DB112080
:102A100000E0781CCDE9000104A90CA8FFF7EEFC4A
:102A2000DDE90D010C9A4FF0000B07F1010910923E
:102A300000914EE04FF000400097CDE9011004A94D
:102A40000CA8FFF7DBFCDDE90D020C9B0F994FF0A2
:102A5000000B91461093009211B9791C00EB01090B
:102A6000B7EB090003D4C0F1FF3B07F10109A9EB63
:102A70000700019042E0012F00DA01270021112F09
:102A800001DD112000E03846CDE9000104A90CA8C1
:102A9000FFF7B4FCDDE90D010C9A00914FF0000B3B
:102AA000B946109221070FD4009A4A4503DA91469D
:102AB00001E0A9F10109B9F1010F05DD109AA9F1B1
:102AC0000101515C3029F4D0B84202DA10F1040F50
:102AD00003DA0121CDE9011010E0002803DC834472
:102AE000A9EB000102E0411C494500DD8946A0EB4D
:102AF0000B00401C01904FF000400290200705D4CD
:102B00000198484502DB4FF0FF30019000208DF81E
:102B10004B0002980DF14B07B0F1004F25D0022079
:102B20000C902B200D90029800280CDA4042029065
:102B30002D200D9007E00A210298FDF777FD303136
:102B4000029007F8011D0C99481E0C900029F2DC38
:102B500002980028EFD1791E0D980870307800F0A7
:102B6000200040F0450007F8020D11A8C01BC01D51
:102B700002901398007800B1012000EB0901019840
:102B800001EBE071029801440398401A401E039043
:102B9000E00306D453462146179A039800F05CF8E8
:102BA00005441398007818B15246179990476D1C48
:102BB000E00323D553462146179A039800F04CF8BA
:102BC00005441BE0BBF1000F07DB0098584504DD0E
:102BD0001098179910F80B0001E017993020524611
:102BE000904701980BF1010B401E05F10105019082
:102BF00004D12E205246179990476D1CB9F100015F
:102C0000A9F10109DEDC05E017F8010B524617991E
:102C100090476D1C0299481E02900029F4DC53462F
:102C20002146179A03989EE62D0000002B00000015
:102C3000200000002DE9F041044600251E461746FD
:102C4000880404D405E039462020B0476D1C641E7A
:102C5000F9D52846BDE8F0812DE9F041044600256C
:102C60001E469046C80301D5302700E0202788047F
:102C700004D505E041463846B0476D1C641EF9D5C1
:102C80002846BDE8F0810A68531C0B60107070473D
:102C90001CB5FDF7D5FEFEF741F9FEF711F8FDF77B
:102CA00073FFFEF7A7FCFEF7BDFCFFF705FAFEF782
:102CB0008BFB7BE1FDF792FEBD490870084600786A
:102CC00001280CD1BB480078401CBA49087008782C
:102CD00000EBD0714910A0EB4101B64A1170B54824
:102CE000007800287DD1FDF7EBFE0020FDF70CFFFA
:102CF000AF480078022805D1AF480078C0F1010044
:102D0000AD490870AC48007840B1ACA3082200215E
:102D10001820FEF750F9FEF703FB07E0A8A30822EE
:102D200000211820FEF747F9FEF7FAFAA0480078CC
:102D3000032814D1A048007888B9A248B0F900004F
:102D4000A14908809F480088103000B29D49088042
:102D50000846B0F90000102801DD002008809448E2
:102D60000078042814D19448007888B99548B0F9BF
:102D700000009549088093480088103800B29149B6
:102D800008800846B0F90000002801DA1020088009
:102D900087480078032819D187480078B0B189485E
:102DA000008838B94FF07E5188480068FDF7CAF9AD
:102DB0008649086083480088102807D14FF07E516B
:102DC00083480068FDF7BEF98149086078480078BB
:102DD00004281BD178480078C0B17A48008848B9E7
:102DE00000E02BE04FF07E5178480068FDF7FCF9D9
:102DF0007649086073480088102807D14FF07E514B
:102E000073480068FDF7F0F97149086071A3082262
:102E100000210846FEF7CFF869A308226A48B0F9F6
:102E200000102820FEF7C7F86BA308226548B0F908
:102E300000102820FEF7BFF8FEF772FA5D48007810
:102E400001287CD15EA3082200212820FEF7B3F8D8
:102E50005BA3082210212820FEF7ADF85FA308220B
:102E600000210846FEF7A7F8FEF7A6FB5C490870AC
:102E7000FEF7ACFB5B490870FEF7B2FB5A490870DD
:102E800057480078012807D156480078012803D117
:102E900008460078012809D05148007860B95148A7
:102EA0000078012808D15048007828B94F48504987
:102EB00008605048504908604948007801280CD102
:102EC00048480078012808D14748007828B94B487D
:102ED000474908604A48484908604148007868B94D
:102EE00040480078012809D13F480078012805D1E1
:102EF00044483F49086044483F49086038480078E2
:102F000001280AD13748007838B93748007820B905
:102F10003C4837490860384908603148007858B95A
:102F20003048007840B930480078012804D134484E
:102F30002F490860304908603448006800E00FE01D
:102F4000FDF734FB04460D4631480068FDF72EFBC3
:102F5000064632460B462FA0CDE90045FEF7BEFBE4
:102F60002EA3082200213020FEF725F82EA30822E8
:102F700010213020FEF71FF814480068FDF716FBFB
:102F80002CA30822CDE9000100213020FEF713F820
:102F90000F480068FDF70AFB29A30822CDE90001CC
:102FA00010213020FEF707F8FEF7BAF982E600009C
:102FB0001C0000201D0000206C00002045000000C7
:102FC00020000000680000206A000020500000205F
:102FD000540000204E4F00003E000000474F00000C
:102FE0001E0000201F00002020000020000070C2F2
:102FF000240000200000704228000020000020C2B1
:103000000000F0410000F0C10000204264000020F8
:103010006000002025662C25660D0A00546172317F
:103020003A20202020000000546172323A202020F3
:1030300020200000546172313A252E3066000000D5
:10304000546172323A252E30660000000000000004
:10305000000000000000000000000000000000F878
:1030600000000000000000333000000000160E00D9
:10307000160E0000000000000000000040C0784074
:10308000C0784000043F04043F040400007088FC42
:1030900008300000001820FF211E0000F008F0009A
:1030A000E018000000211C031E211E0000F008880B
:1030B000700000001E212324192721100000001693
:1030C0000E0000000000000000000000000000E012
:1030D0001804020000000007182040000002041835
:1030E000E00000000040201807000000404080F091
:1030F000804040000202010F01020200000000F0C7
:10310000000000000101011F01010100000000009A
:103110000000000000B0700000000000000000008F
:103120000000000000010101010101010000000098
:10313000000000000030300000000000000000002F
:1031400080601804006018060100000000E010080C
:103150000810E000000F102020100F00001010F8E1
:10316000000000000020203F202000000070080820
:1031700008887000003028242221300000300888A0
:10318000884830000018202020110E000000C020C8
:1031900010F8000000070424243F240000F80888E9
:1031A000880808000019212020110E0000E0108876
:1031B00088180000000F112020110E0000380808A8
:1031C000C83808000000003F0000000000708808B8
:1031D00008887000001C222121221C0000E0100839
:1031E0000810E0000000312222110F00000000C092
:1031F000C00000000000003030000000000000C0EF
:10320000C0000000000080B070000000000080409E
:103210002010080000010204081020004040404037
:10322000404040000404040404040400000810208A
:1032300040800000002010080402010000704808CF
:103240000808F0000000003036010000C030C82837
:10325000E810E0000718272423140B000000C038F2
:10326000E0000000203C23020227382008F888886C
:1032700088700000203F202020110E00C030080878
:1032800008083800071820202010080008F808084F
:103290000810E000203F202020100F0008F8888848
:1032A000E8081000203F20202320180008F8888814
:1032B000E8081000203F200003000000C03008088C
:1032C0000838000007182020221E020008F8080015
:1032D0000008F808203F210101213F20000808F8DC
:1032E000080800000020203F2020000000000808FF
:1032F000F8080800C08080807F00000008F888C0BF
:1033000028180800203F20012638200008F808006F
:1033100000000000203F20202020300008F8F800A6
:10332000F8F80800203F003F003F200008F830C0B8
:103330000008F808203F200007183F00E0100808A8
:103340000810E0000F10202020100F0008F80808D7
:103350000808F000203F210101010000E0100808EA
:103360000810E0000F18242438504F0008F888880F
:1033700088887000203F2000030C302000708808EF
:10338000080838000038202121221C00180808F8FD
:10339000080818000000203F2000000008F808007E
:1033A0000008F808001F202020201F00087888004F
:1033B00000C83808000007380E010000F80800F8BF
:1033C0000008F800033C0700073C03000818688069
:1033D0008068180820302C03032C30200838C800DF
:1033E000C83808000000203F20000000100808082E
:1033F000C83808002038262120201800000000FED0
:10340000020202000000007F40404000000C30C07B
:1034100000000000000000010638C00000020202A7
:10342000FE000000004040407F0000000020100827
:103430000408102000000000000000000000000050
:10344000000000008080808080808080000204086E
:10345000000000000000000000000000000080806C
:10346000808000000019242222223F2008F80080DA
:1034700080000000003F112020110E00000000809D
:1034800080800000000E112020201100000000802C
:103490008088F800000E112020103F20000080805E
:1034A00080800000001F222222221300008080F072
:1034B000888888180020203F20200000000080809D
:1034C00080808000006B94949493600008F80080E2
:1034D00080800000203F210000203F20008098983D
:1034E000000000000020203F20200000000000809D
:1034F0009898000000C08080807F000008F80000DD
:1035000080808000203F24022D302000000808F831
:10351000000000000020203F2020000080808080EC
:1035200080808000203F20003F20003F00808000FE
:103530008080000000203F2100203F20000080808C
:1035400080800000001F202020201F00808000803D
:103550008000000080FFA12020110E0000000080EC
:1035600080808000000E112020A0FF8080808000DD
:103570008080800020203F2120000100000080800A
:10358000808080000033242424241900008080E0FF
:10359000808000000000001F2020000080800000CC
:1035A00000808000001F202020103F2080808000AD
:1035B0000080808000010E300806010080800080BD
:1035C000008080800F300C030C300F0000808000E2
:1035D000808080000020312E0E312000808080000D
:1035E0000080808080818E701806010000808080BD
:1035F000808080000021302C22213000000000005B
:10360000807C020200000000003F404000000000FB
:10361000FF00000000000000FF0000000002027C2C
:10362000800000000040403F00000000008040405B
:103630008000008000000000000101000000000088
:1036400000000000002F0000000007000700001429
:103650007F147F1400242A7F2A1200231308646237
:1036600000364955225000000007000000001C22CF
:103670004100000041221C000014083E081400080C
:10368000083E0808000000A06000000808080808BC
:10369000000060600000002010080402003E514954
:1036A000453E0000427F40000042615149460021F2
:1036B00041454B31001814127F100027454545390C
:1036C000003C4A4949300001710905030036494967
:1036D000493600064949291E000036360000000020
:1036E000563600000008142241000014141414146B
:1036F000000041221408000201510906003E49550C
:10370000592E007C1211127C007F49494936003E37
:1037100041414122007F4141221C007F49494941EA
:10372000007F09090901003E4149497A007F0808E4
:10373000087F0000417F4100002040413F01007FA1
:1037400008142241007F40404040007F020C027F6D
:10375000007F0408107F003E4141413E007F09097F
:103760000906003E4151215E007F091929460046A5
:10377000494949310001017F0101003F4040403F7C
:10378000001F2040201F003F4038403F00631408C6
:1037900014630007087008070061514945430000A1
:1037A0007F414100000204081020000041417F00D9
:1037B00000040201020400404040404000000102B9
:1037C0000400002054545478007F484444380038A2
:1037D0004444442000384444487F0038545454182A
:1037E00000087E0901020018A4A4A47C007F08043C
:1037F00004780000447D4000004080847D00007F0C
:10380000102844000000417F4000007C0418047828
:10381000007C0804047800384444443800FC242424
:1038200024180018242418FC007C0804040800480C
:103830005454542000043F444020003C4040207C2D
:10384000001C2040201C003C4030403C004428101C
:103850002844001CA0A0A07C004464544C440000F8
:10386000087F41000000007F00000000417F080049
:10387000000804081008EFBC8C00000000000000E5
:1038800000000000000000000000000000583800A8
:103890000000000000000000000000E38082000043
:1038A0000000000000000000000000000000000018
:1038B0000000182424180000000000000000000090
:1038C000E4BDA00000008060F8074020180F08C881
:1038D0000808281800010000FF00100C0340807F3A
:1038E0000001061800E5A5BD00001010F01F10F043
:1038F00000808282E2928A8680004022150816614A
:10390000000040807F0000000000E4B89600002026
:103910002020FE2020FF202020FF2020202000004B
:1039200000007F404047444444474040400000E797
:10393000958C0000000000FE929292FE929292FE00
:103940000000000008080484621E010001FE020459
:10395000040808000000000000FF0101013109090E
:103960000909897101010101FFFF80808080808049
:103970009681808080808080FFFF01818181FD8928
:1039800091A1C1FD81818101FFFF808080809F889E
:103990008482819F80808080FF000000BC39000805
:1039A0000000002070000000DC2300082C3A000812
:1039B0007000002068080000EC23000800000000F0
:1039C00001020304010203040607080902040608B1
:1039D00000000000000000000000000000000000E7
:1039E0000000000000000000713D8A3EEC51B83D2F
:1039F000EC51383E00000000000000000000000014
:103A000000000000000000000000000000000000B6
:103A100000000000000000000000000000000000A6
:0C3A20000000000000000000000000009A
:0400000508000105E9
:00000001FF
